:020000040800F2
:10000000680D00206902000859350008351F0008F6
:1000100031330008050D0008614F000800000000A2
:10002000000000000000000000000000493D000842
:10003000ED1A000800000000BD380008453F000828
:10004000830200088302000883020008830200087C
:10005000830200088302000883020008830200086C
:10006000830200088302000883020008830200085C
:10007000830200088302000883020008830200084C
:10008000830200088302000883020008830200083C
:10009000830200088302000883020008830200082C
:1000A000830200088302000883020008830200081C
:1000B00083020008E1400008D942000883020008DA
:1000C00083020008830200088302000883020008FC
:1000D00083020008694C0008A54C00088302000850
:1000E00083020008830200088302000883020008DC
:1000F00083020008830200088302000883020008CC
:100100008302000883020008C1440008830200083B
:1001100083020008830200088302000821470008C8
:10012000830200088302000883020008830200089B
:10013000830200088302000883020008830200088B
:10014000830200088302000883020008830200087B
:10015000830200088302000883020008830200086B
:10016000830200088302000883020008830200085B
:10017000830200088302000883020008830200084B
:10018000830200088302000800F002F800F05CF827
:100190000AA090E8000C82448344AAF10107DA45E2
:1001A00001D100F051F8AFF2090EBAE80F0013F0D8
:1001B000010F18BFFB1A43F001031847A480000089
:1001C000C48000000A444FF0000C10F8013B13F00B
:1001D000070408BF10F8014B1D1108BF10F8015BA0
:1001E000641E05D010F8016B641E01F8016BF9D193
:1001F00013F0080F1EBF10F8014BAD1C0C1B09D1EA
:100200006D1E58BF01F801CBFAD505E014F8016B5B
:1002100001F8016B6D1EF9D59142D6D370470000ED
:100220000023002400250026103A28BF78C1FBD8FF
:10023000520728BF30C148BF0B6070471FB507F099
:10024000FCFE1FBD10B510BD00F06EF81146FFF7A3
:10025000F5FF06F0B1F800F08CF803B4FFF7F2FFF9
:1002600003BC05F0C5FF0000094880470948004766
:10027000FEE7FEE7FEE7FEE7FEE7FEE7FEE7FEE756
:10028000FEE7FEE704480549054A064B70470000B3
:10029000553F00088901000868070020680D00200C
:1002A000680900206809002070474FF0000200B57F
:1002B000134694469646203922BFA0E80C50A0E889
:1002C0000C50B1F12001BFF4F7AF090728BFA0E837
:1002D0000C5048BF0CC05DF804EB890028BF40F803
:1002E000042B08BF704748BF20F8022B11F0804F45
:1002F00018BF00F8012B7047704770477047704770
:1003000010B500F009F8006810BD10B5044600F003
:1003100003F8046010BD0000004870470407002087
:1003200000487047040700207546FFF7F9FFAE4606
:1003300005006946534620F00700854618B020B5F1
:10034000FFF7A0FFBDE820404FF000064FF0000788
:100350004FF000084FF0000B21F00701AC46ACE86D
:10036000C009ACE8C009ACE8C009ACE8C0098D46DA
:1003700070470446AFF300802046FFF76EFF2DE97B
:10038000F04107460C460026002509E036023919DF
:10039000491B491E88B200F008F80644681CC5B223
:1003A000A542F3DB30B2BDE8F08170B5044600260B
:1003B00001F00EFF2546E11704EB11610912A0229E
:1003C00002EB4101C8B201F0C7FE01F04FFFE11797
:1003D00004EB11610912A4EB0121C8B201F0BCFECB
:1003E00001F044FF01F0F4FEA12001F0B5FE01F0A0
:1003F0003DFF01F069FE064601F03CFE01F00EFFF4
:10040000304670BD2DE9F04105460E4617460024E2
:1004100009E0E20026FA02F2D1B22A1990B200F005
:1004200006F8601CC4B2BC42F3DBBDE8F08170B5D5
:1004300004460E4601F0CCFE2546E11704EB11619F
:100440000912A02202EB4101C8B201F085FE01F0C1
:100450000DFFE11704EB11610912A4EB0121C8B2F1
:1004600001F07AFE01F002FFF0B201F075FE01F03A
:10047000FDFE01F0D3FE0A2005F0C9FE70BD0000AC
:1004800010B502224821A02001F04EFE0B49088041
:1004900002224C21A02001F047FE094908800222D7
:1004A0005021A02001F040FE0649088000200349A9
:1004B0000880034908800349088010BD70000020AF
:1004C000720000207400002010B502213C20FFF7CC
:1004D00056FF1449488202214020FFF750FF11497E
:1004E000888202214420FFF74AFF0E49C882022277
:1004F0003021A02001F018FE0A49A1F85E00022276
:100500003421A02001F010FE01460648A0F860103A
:1005100002223821A02001F007FE01460148A0F880
:10052000621010BD2002002010B52DED048B0222B8
:100530007421A02001F0F8FD80B209EE100A022219
:100540007621A02001F0F0FD80B208EE100A022210
:100550007821A02001F0E8FD80B208EE900AB8EE04
:10056000490ADFED3E0A80EE201A3D4880ED0A1A66
:10057000B8EE480ADFED390A80EE201A80ED0B1A3A
:10058000B8EE680ADFED350A80EE201A80ED0C1A0D
:1005900002227A21A02001F0C7FD80B209EE100AE4
:1005A00002227C21A02001F0BFFD80B208EE100ADB
:1005B00002227E21A02001F0B7FD80B208EE900A51
:1005C000B8EE490ADFED250A80EE201A244880EDB6
:1005D000251AB8EE480ADFED210A80EE201A80EDD8
:1005E000261AB8EE680ADFED1D0A80EE201A80EDAB
:1005F000271A02228021A02001F096FD80B209EE88
:10060000100A02228221A02001F08EFD80B208EEA5
:10061000100A02228421A02001F086FD80B208EE9B
:10062000900AB8EE490ADFED0D0A80EE201A0C4858
:1006300080ED401AB8EE480ADFED080A80EE201A75
:1006400080ED411AB8EE680ADFED040A80EE201A48
:1006500080ED421ABDEC048B10BD000000007A440E
:10066000A404002010B52DED048B02229021A020BF
:1006700001F05AFD80B209EE100A02229221A02058
:1006800001F052FD80B208EE100A02229421A0204F
:1006900001F04AFD80B208EE900AB8EE490ADFED9B
:1006A0000D0A80EE201A0C4880ED521AB8EE480A66
:1006B000DFED080A80EE201A80ED531AB8EE680AC2
:1006C000DFED040A80EE201A80ED541ABDEC048B95
:1006D00010BD000000007A44A404002010B52DEDE8
:1006E000048B02216020FFF74AFE80B209EE100A57
:1006F00002216220FFF743FE80B208EE100A0221B9
:100700006420FFF73CFE80B208EE900AB8EE490A7A
:10071000DFED3D0A80EE201A3C4880ED011AB8EE6C
:10072000480ADFED390A80EE201A80ED021AB8EE91
:10073000680ADFED350A80EE201A80ED031A0222E6
:100740006821A02001F0F0FC80B209EE100A02221C
:100750006A21A02001F0E8FC80B208EE100A022213
:100760006C21A02001F0E0FC80B208EE900AB8EE07
:10077000490ADFED250A80EE201A244880ED1C1A74
:10078000B8EE480ADFED200A80EE201A80ED1D1A2F
:10079000B8EE680ADFED1C0A80EE201A80ED1E1A02
:1007A00002226E21A02001F0BFFC80B209EE100AE7
:1007B00002227021A02001F0B7FC80B208EE100ADE
:1007C00002227221A02001F0AFFC80B208EE900A54
:1007D000B8EE490ADFED0C0A80EE201A0B4880EDD6
:1007E000371AB8EE480ADFED080A80EE201A80EDCD
:1007F000381AB8EE680ADFED040A80EE201A80EDA0
:10080000391ABDEC048B10BD00007A44A40400200A
:1008100010B502221F48B0F90010482001F0C5FBB6
:1008200002221D48B0F900104C2001F0BEFB02224C
:100830001A48B0F90010502001F0B7FB0122184807
:10084000B0F900108A2001F0B0FB01221548B0F980
:1008500000108B2001F0A9FB01221348B0F9001011
:100860008C2001F0A2FB01221048B0F900108D206D
:1008700001F09BFB01220E48B0F900108E2001F020
:1008800094FB01220B48B0F900108F2001F08DFB82
:1008900010BD0000700000207200002074000020D5
:1008A0006400002066000020680000206A0000202C
:1008B0006C0000206E00002010B55448B0F95E00B6
:1008C000002804DA0021514880F8941003E0012147
:1008D0004E4880F894104D48B0F96000002804DAC2
:1008E00000214A4880F8951003E00121474880F82C
:1008F00095104648B0F96200002804DA0021434808
:1009000080F8961003E00121404880F896103F4897
:10091000B0F91200002804DA00203C4981F84800B0
:1009200003E00120394981F848003848B0F9140043
:10093000002804DA0021354880F8491003E001213D
:10094000324880F849103148B0F91600002804DA1E
:1009500000212E4880F84A1003E001212B4880F83E
:100960004A102A4890F8941001222F20FFF74AFDE0
:10097000264890F8951001223320FFF743FD2348C5
:1009800090F8961001223720FFF73CFD1F4890F8A1
:10099000481001223B20FFF735FD1C4890F8491014
:1009A00001223F20FFF72EFD184890F84A1001223F
:1009B0004320FFF727FD1548B0F95E1002223020D2
:1009C00001F0F3FA1148B0F960100222342001F06E
:1009D000ECFA0E48B0F962100222382001F0E5FA74
:1009E0000A48B0F9121002223C20FFF70BFD07481D
:1009F000B0F9141002224020FFF704FD0348B0F9BB
:100A0000161002224420FFF7FDFC10BD200200203A
:100A100070B54D4890ED0A0ADFED4C0A20EE200A31
:100A2000BCEEC00A10EE100A84B2474890ED0B0AE3
:100A3000DFED460A20EE200ABCEEC00A10EE100AD6
:100A400085B2414890ED0C0ADFED400A20EE200A05
:100A5000BCEEC00A10EE100A86B2022221467420B3
:100A600001F0A3FA02222946762001F09EFA022222
:100A70003146782001F099FA334890ED250ADFEDF0
:100A8000330A20EE200ABCEEC00A10EE100A84B22F
:100A90002D4890ED260ADFED2D0A20EE200ABCEE4F
:100AA000C00A10EE100A85B2274890ED270ADFED44
:100AB000270A20EE200ABCEEC00A10EE100A86B209
:100AC000022221467A2001F070FA022229467C2077
:100AD00001F06BFA022231467E2001F066FA1A48D4
:100AE00090ED400ADFED190A20EE200ABCEEC00AA4
:100AF00010EE100A84B2144890ED410ADFED130A9B
:100B000020EE200ABCEEC00A10EE100A85B20E4894
:100B100090ED420ADFED0D0A20EE200ABCEEC00A7D
:100B200010EE100A86B202222146802001F03DFA22
:100B300002222946822001F038FA0222314684201E
:100B400001F033FA70BD0000A404002000007A44D4
:100B500070B51A4890ED520ADFED190A20EE200A0E
:100B6000BCEEC00A10EE100A84B2144890ED530A8D
:100B7000DFED130A20EE200ABCEEC00A10EE100AC8
:100B800085B20E4890ED540ADFED0D0A20EE200AE2
:100B9000BCEEC00A10EE100A86B202222146902056
:100BA000FFF730FC022229469220FFF72BFC02229D
:100BB00031469420FFF726FC70BD0000A4040020FD
:100BC00000007A4470B54D4890ED010ADFED4C0A03
:100BD00020EE200ABCEEC00A10EE100A84B247488C
:100BE00090ED020ADFED460A20EE200ABCEEC00AB4
:100BF00010EE100A85B2414890ED030ADFED400A7D
:100C000020EE200ABCEEC00A10EE100A86B20222C4
:100C100021466020FFF7F6FB022229466220FFF7FB
:100C2000F1FB022231466420FFF7ECFB334890EDE4
:100C30001C0ADFED330A20EE200ABCEEC00A10EEDB
:100C4000100A84B22D4890ED1D0ADFED2D0A20EE2A
:100C5000200ABCEEC00A10EE100A85B2274890EDBB
:100C60001E0ADFED270A20EE200ABCEEC00A10EEB5
:100C7000100A86B202222146682001F096F902226B
:100C800029466A2001F091F9022231466C2001F0D8
:100C90008CF91A4890ED370ADFED190A20EE200A88
:100CA000BCEEC00A10EE100A84B2144890ED380A67
:100CB000DFED130A20EE200ABCEEC00A10EE100A87
:100CC00085B20E4890ED390ADFED0D0A20EE200ABC
:100CD000BCEEC00A10EE100A86B2022221466E2037
:100CE00001F063F902222946702001F05EF9022228
:100CF0003146722001F059F970BD0000A4040020B3
:100D000000007A4400BFFEE710B52DED048BB0EE75
:100D1000408AF0EE608AB0EE419AFE4800780228E0
:100D20007BDBFD48B0F90200FB49B1F90810401A1D
:100D300000EE100AF8EEC00AB3EE041A80EE810A43
:100D400030EE280AF0EE408AF24890ED040A30EEC8
:100D5000280A80ED040A90ED040AD0ED050AB4EEED
:100D6000E00AF1EE10FA04DD90ED050A80ED040AC8
:100D700011E0E84890ED040AD0ED050AF1EE600AB2
:100D8000B4EEE00AF1EE10FA05D290ED050AB1EEEC
:100D9000400A80ED040ADF4890ED020AD0ED040A13
:100DA00020EE200AD0ED010A00EEA80AD0ED030AD9
:100DB000DA4890ED001A38EEC11A00EE810AD548E3
:100DC00080ED090AD548C0ED008AD348B0F900008B
:100DD000D149B1F90A10401A00EE100AF8EEC00A23
:100DE000B3EE041A80EE810A30EE080AB0EE408AB3
:100DF000C84890ED1F0A30EE080A80ED1F0A90EDFA
:100E00001F0AD0ED200AB4EEE00AF1EE10FA05DD7B
:100E100090ED200A80ED1F0A12E050E0BD4890EDF1
:100E20001F0AD0ED200AF1EE600AB4EEE00AF1EEFE
:100E300010FA05D290ED200AB1EE400A80ED1F0AAB
:100E4000B44890ED1D0AD0ED1F0A20EE200AD0ED27
:100E50001C0A00EE880AD0ED1E0AB14890ED001A77
:100E600038EE411A00EE810AAA4880ED240AAC4807
:100E700080ED008AA848B0F90600A749B1F90C1026
:100E8000401A00EE100AB8EEC00AA248D0ED370AA8
:100E900060EE200AB1EE041A80EE810A90ED391A54
:100EA000A048B0F9500000EE900AF8EEE00A01EE1A
:100EB000200A984880ED3F0A00209649087095481E
:100EC0000078401C93490870084690ED240A954824
:100ED000D0ED220A9FED941A00EE810A0846D0ED6B
:100EE000250A20EE200A80ED2A0A90ED240A8D487A
:100EF000D0ED220A9FED8C1A00EE810A0846D0ED53
:100F0000280A30EE200A80ED280A90ED280AD0ED5C
:100F1000290AB4EEE00AF1EE10FA04DD90ED290A98
:100F200080ED280A11E07B4890ED280AD0ED290ACF
:100F3000F1EE600AB4EEE00AF1EE10FA05D290ED9F
:100F4000290AB1EE400A80ED280A724890ED260A7F
:100F5000D0ED280A20EE200A80ED2B0A7148D0ED52
:100F6000220AB0F9580000EE100AB8EEC00A30EEBE
:100F7000C00A6848D0ED270A20EE200A80ED2C0A2E
:100F800090ED090A6748D0ED230A9FED671A00EE3D
:100F9000810A6048D0ED0A0A20EE200A80ED0F0A8F
:100FA00090ED090A5F48D0ED230A9FED5F1A00EE2D
:100FB000810A5848D0ED0D0A30EE200A80ED0D0A66
:100FC00090ED0D0AD0ED0E0AB4EEE00AF1EE10FA43
:100FD00004DD90ED0E0A80ED0D0A11E04D4890ED14
:100FE0000D0AD0ED0E0AF1EE600AB4EEE00AF1EE61
:100FF00010FA05D290ED0E0AB1EE400A80ED0D0A0E
:10100000444890ED0B0AD0ED0D0A20EE200A80ED49
:10101000100A4448D0ED230AB0F95A0000EE100A35
:10102000B8EEC00A30EEC00A3A48D0ED0C0A20EE05
:10103000200A80ED110A90ED3F0A3A48D0ED240ACB
:101040009FED391A00EE810A3248D0ED400A20EEB9
:10105000200A80ED450A3348D0ED240AB0F95C003F
:1010600000EE100AB8EEC00A30EEC00A2948D0EDF2
:10107000420A20EE200A80ED470A90ED2A0AD0EDC0
:101080002B0A30EE200AD0ED2C0A30EE200A80ED3B
:101090002D0A90ED0F0AD0ED100A30EE200AD0EDA7
:1010A000110A30EE200A80ED120A90ED450AD0EDCB
:1010B000470A30EE200A80ED480A90ED480ADFED3D
:1010C0001B0AB4EEE00AF1EE10FA03DD9FED170AF9
:1010D00080ED480A0F4890ED480ADFED150AB4EE9E
:1010E000E00AF1EE10FA03D29FED110A80ED480AF2
:1010F0000C4890ED220ABDEEC00A10EE100A01B2B3
:101100000848A0F8581090ED230ABDEEC00A10EE72
:10111000100A0FE0A40400206806002088010020C7
:101120008401002020020020A34C65420000C84238
:101130000000C8C201B2AB48A0F85A1090ED240AD2
:10114000BDEEC00A10EE100A01B2A648A0F85C106D
:10115000A548B0F9040040F21A41884275DDA34861
:101160000078012802D0A1480078E8BB9E48B0F979
:101170000400A0F57A709E4908609E48D0ED480AA8
:10118000084690ED000AB8EEC00A30EE800A994891
:10119000D0ED2D0A30EE600AD0ED120A30EE600A72
:1011A000BDEEC00A10EE100A00B2934908809148C3
:1011B000D0ED480A8E4890ED000AB8EEC00A30EE35
:1011C000600A8C48D0ED2D0A30EE200AD0ED120ACC
:1011D00030EE600ABDEEC00A10EE100A00B2488080
:1011E0008448D0ED480A00E030E0814890ED000AE4
:1011F000B8EEC00A30EE800A7E48D0ED2D0A30EEFF
:10120000200AD0ED120A30EE200ABDEEC00A10EE20
:10121000100A00B288807748D0ED480A744890EDF3
:10122000000AB8EEC00A30EE600A7248D0ED2D0A0E
:1012300030EE600AD0ED120A30EE200ABDEEC00A90
:1012400010EE100A00B2C88091E079E0674800789B
:10125000022874D16748D0ED5A0A654890ED000A1B
:10126000B8EEC00A30EE800A6248D0ED480A30EE8F
:10127000200AD0ED2D0A30EE600AD0ED120A30EED1
:10128000600ABDEEC00A10EE100A00B25A4908808A
:101290005848D0ED5A0A564890ED000AB8EEC00AF8
:1012A00030EE800A5348D0ED480A30EE600AD0EDA7
:1012B0002D0A30EE200AD0ED120A30EE600ABDEEA3
:1012C000C00A10EE100A00B248804A48D0ED5A0A0F
:1012D000474890ED000AB8EEC00A30EE800A454853
:1012E000D0ED480A30EE200AD0ED2D0A30EE200A6B
:1012F000D0ED120A30EE200ABDEEC00A10EE100A40
:1013000000B288803B48D0ED5A0A394890ED000A77
:10131000B8EEC00A30EE800A3648D0ED480A30EE0A
:10132000600AD0ED2D0A30EE600AD0ED120A30EEE0
:10133000200ABDEEC00A10EE100A00B2C88016E006
:1013400000202D49C8808880488008809FED2B0AA6
:10135000284880ED040A9FED290A80ED1F0A9FEDC1
:10136000270A80ED0D0A9FED250A80ED280A224804
:10137000B0F90000002802DC00201F4908801E4848
:10138000B0F90200002802DC00201B4948801A48FE
:10139000B0F90400002802DC0020174988801648B4
:1013A000B0F90600002802DC00201349C880144868
:1013B000007870B1104CE488A3B20F4CA488A2B29C
:1013C0000D4C6488A1B20C4C2488A0B201F0ECFF53
:1013D00005E000231A461946184601F0E5FFBDEC6A
:1013E000048B10BD20020020680600202D00002084
:1013F00078010020A4040020660100200000000005
:10140000640100202DE9F0412DED048B04460D46CA
:101410000026002704E0E05D3044C6B2781CC7B265
:10142000681EB842F7DC601910F8010CB04203D016
:10143000BDEC048BBDE8F0812078AA2802D1607849
:10144000AF2800D0F4E7A078012828D1207901281E
:1014500003D1FE4981F84B0021E02079022804D114
:101460000121FA4880F8971019E02079032808D163
:101470000120F64981F84B000121F44880F89710CB
:101480000DE02079042803D10120F149087006E01D
:101490002079212802DB2079262800DD00BFA078F2
:1014A000022815D12079012811D105F0AFFCA078D0
:1014B000314602F04BFC05F095FDA078314602F074
:1014C00045FC05F02BFCA078314602F03FFC00BF44
:1014D000A07810287ED1A078314602F037FC21791F
:1014E000090209B2627941EA020006F04AFA41ECC7
:1014F000190B9FEDD80B53EC102B06F06DFA41EC55
:10150000180B05F0AFFFD5490867A179090209B2A8
:10151000E27941EA020006F034FA41EC190B9FED42
:10152000CD0B53EC102B06F057FA41EC180B05F0DD
:1015300099FFCA494867217A090209B2627A41EAE9
:10154000020006F01EFA41EC190B9FEDC20B53ECA2
:10155000102B06F041FA41EC180B05F083FFBF4950
:101560008867A17A090209B2E27A41EA020006F02C
:1015700008FA41EC190B9FEDB70B53EC102B06F05A
:101580002BFA41EC180B05F06DFFB4494860217B44
:10159000090209B2627B41EA020006F0F2F941EC6D
:1015A000190B9FEDAC0B53EC102B06F015FA41EC28
:1015B000180B05F057FFA9498860A17B090209B201
:1015C000E27B41EA020006F0DCF941EC190B9FEDE9
:1015D000A10B00E050E053EC102B06F0FDF941ECBC
:1015E000180B05F03FFF9D49C860217C090209B234
:1015F000627C41EA020006F0C4F941EC190B9FED50
:10160000950B53EC102B06F0E7F941EC180B05F0A5
:1016100029FF9249C1F8DC00A17C090209B2E27CF1
:1016200041EA020006F0ADF941EC190B9FED890B80
:1016300053EC102B06F0D0F941EC180B05F012FF1B
:101640008649C1F8E000217D090209B2627D41EAC4
:10165000020006F096F941EC190B9FED7E0B53EC5E
:10166000102B06F0B9F941EC180B05F0FBFE7B4995
:10167000C1F8E400FFF7A6FAA07811287ED1A0787F
:10168000314602F063FB2179090209B2627941EA2D
:10169000020006F076F941EC190B9FED6E0B53EC4E
:1016A000102B06F099F941EC180B05F0DBFE6B49A5
:1016B000C1F89400A179090209B2E27941EA020075
:1016C00006F05FF941EC190B9FED620B53EC102B08
:1016D00006F082F941EC180B05F0C4FE01465F48A4
:1016E000C0F89810217A090209B2627A41EA020030
:1016F00006F047F941EC190B9FED560B53EC102BFC
:1017000006F06AF941EC180B05F0ACFE01465348AF
:10171000C0F89C10A17A090209B2E27A41EA0200FB
:1017200006F02FF941EC190B9FED4A0B53EC102BEF
:1017300006F052F941EC180B05F094FE4749886217
:10174000217B090209B2627B41EA020006F019F925
:1017500041EC190B9FED3F0B53EC102B06F03CF9BD
:1017600041EC180B05F07EFE01463C48C162A17BAE
:10177000090209B2E27B41EA020000E059E006F00A
:1017800000F941EC190B9FED330B53EC102B06F0D5
:1017900023F941EC180B05F065FE01462F48016363
:1017A000217C090209B2627C41EA020006F0E9F8F4
:1017B00041EC190B9FED270B53EC102B06F00CF9A5
:1017C00041EC180B05F04EFE2449C1F80001A17C44
:1017D000090209B2E27C41EA020006F0D2F841ECCB
:1017E000190B9FED1C0B53EC102B06F0F5F841EC98
:1017F000180B05F037FE01461848C0F80411217D8A
:10180000090209B2627D41EA020006F0BAF841EC31
:10181000190B9FED100B53EC102B06F0DDF841EC8B
:10182000180B05F01FFE01460C48C0F80811FFF721
:10183000EFF8A078122856D1A078314602F086FA47
:101840002179090209B262790AE000002002002031
:101850004C000020FCA9F1D24D62503FA4040020AE
:1018600041EA020006F08DF841EC190B1FED070B61
:1018700053EC102B06F0B0F841EC180B05F0F2FD1C
:101880002449C1F84801A179090209B2E27941EA83
:10189000020006F076F841EC190B1FED120B53EC29
:1018A000102B06F099F841EC180B05F0DBFD1949F7
:1018B000C1F84C01217A090209B2627A41EA0200B8
:1018C00006F05FF841EC190B1FED1E0B53EC102BCB
:1018D00006F082F841EC180B05F0C4FD0D49C1F883
:1018E0005001FFF735F9A078132803D1A0783146CD
:1018F00002F02CFAA078142803D1A078314602F027
:1019000025FAA078152803D1A078314602F01EFAF6
:1019100000BF8DE5A404002010B5044634480078CB
:1019200038B9AA2C05D1012031490870314804701A
:101930005DE02F480078012807D1AF2C05D10220A7
:101940002B4908702B48447051E029480078022840
:1019500007D1F12C05DA0320254908702548847049
:1019600045E02348007803280CD1322C0ADA042001
:101970001F4908701F48C4701F48047000201F4989
:10198000087034E01A480078042819D11A48007801
:10199000002815DD18480078401E174908701748C0
:1019A000007816490978491C144A1170001D114924
:1019B0000C5411480078D0B905200D49087016E084
:1019C0000B48007805280FD10020094908700B4802
:1019D0000078001D07490C5408480078401DC1B22A
:1019E0000448FFF70FFD02E000200149087010BD18
:1019F000BE010020B8060020BC010020BD0100206F
:101A000035480078F0B13548B0F90000B0F5E16F25
:101A100018DB3248B0F90200B0F5966F12DC2F489F
:101A2000B0F90400B0F5966F0CDC2C48B0F9060054
:101A3000B0F5966F06DC2A480088401C00B22849A1
:101A4000088002E00020264908802548B0F90000FF
:101A50001E2809DD2048007830B100201E4908709A
:101A60001F4908801F4908601B480078F0B91B48CF
:101A7000B0F90600B0F5E16F18DB1848B0F90200C4
:101A8000B0F5966F12DC1548B0F90400B0F5966F0A
:101A90000CDC1248B0F90000B0F5966F06DC124875
:101AA0000088401C00B21049088002E000200E4966
:101AB00008800D48B0F900001E280BDB06480078AE
:101AC00040B901200449087000200749088001201E
:101AD0000449086070470000640100206806002087
:101AE000B6010020A0824242B80100207047F0B544
:101AF0000A4600210023002400BF3DE0012505FA2D
:101B000001F3156805EA03049C4234D105684F00CF
:101B10000326BE40B543056015794E00B540066802
:101B2000354305601579012D02D01579022D16D1A6
:101B300085684F000326BE40B543856055794E0049
:101B4000B540866835438560456801268E40B543BB
:101B50004560456896798E40B6B235434560C568A4
:101B60004F000326BE40B543C560D5794E00B54051
:101B7000C6683543C560491C1029BFD3F0BDF0B518
:101B8000002300244D07ED0E02FA05F3CE1000F1FC
:101B9000200555F826504E07F70E0F26BE40B543D8
:101BA000CF1000F1200646F82750CE1000F1200596
:101BB00055F8265045EA0304CE1000F1200545F8FB
:101BC0002640F0BD0246002013690B400BB10120F6
:101BD00000E0002070474183704701837047000098
:101BE0000B4A11684FF0E02252694FF0E0239B69E5
:101BF000D21A4FF47A735A434FF0E0235B69B2FB79
:101C0000F3F201EB4103C3EBC11302EBC3007047D6
:101C10001000002010B501F053FE2448B0F90A006E
:101C200003EE100AB8EEC33AF0EE432A1F48B0F9AB
:101C3000080003EE100AB8EEC33AB0EE432A1B4880
:101C4000B0F9060003EE100AB8EEC33AF0EE431AFC
:101C50001648B0F9560003EE100AB8EEC33AB0EEDB
:101C6000431A1248B0F9540003EE100AB8EEC33A12
:101C7000F0EE430A0D48B0F9520003EE100AB8EE38
:101C8000C33AB0EE430A0A4890ED003AB8EEC34AB0
:101C9000084890ED003AF8EEC33A074890ED003A54
:101CA000B8EEC33A00F014FB10BD00002002002083
:101CB0003C000020380000203400002010B52B49E3
:101CC000B1F900102A4AB2F90020881800EBD0714F
:101CD000491009B2274A11802749B1F90010274A53
:101CE000B2F90020881800EBD071491009B2244ADB
:101CF00011802449B1F90010234AB2F90020881854
:101D000000EBD071491009B2204A1180204890EDB3
:101D1000000ADFED200A20EE200ABDEEC00A10EE18
:101D2000100A00B21C4908801C4890ED000ADFED43
:101D3000190A20EE200ABDEEC00A10EE100A00B209
:101D400017490880174890ED000ADFED120A20EECF
:101D5000200ABDEEC00A10EE100A00B21249088037
:101D6000FEF756FD00201149087010BD64000020E8
:101D70006A00002070000020660000206C00002037
:101D800072000020680000206E0000207400002017
:101D90007C0000200000C842760000208000002067
:101DA00078000020840000207A0000204C000020F1
:101DB00010B54C480078401C4A4908704FF47040F8
:101DC0004949088049490880494908804FF48050B2
:101DD0004849088048490880484908800020484907
:101DE00008804849088048490880B7EE000A4748FB
:101DF00080ED000AB7EE000A454880ED000AB7EE14
:101E0000000A444880ED000A0121434802F0ADFC7D
:101E10000021424802F0A9FC00204149087000213D
:101E20003D4802F05EFE00BF00203E49086004F01D
:101E30001DFB3048B0F900003B490968884204DDC9
:101E40003948008800B22B4908802B48B0F90000BF
:101E500036490968884204DD3448008800B22649C2
:101E600008802648B0F9000031490968884204DD3D
:101E70002F48008800B2214908801B48B0F90000B3
:101E800029490968884204DA2748008800B21649BF
:101E900008801648B0F9000024490968884204DA2D
:101EA0002248008800B2114908801148B0F90000AA
:101EB0001F490968884204DA1D48008800B20C49AD
:101EC0000880174800781E28AEDD0021124802F075
:101ED0004CFC0121114802F048FC00201049087018
:101EE00010BD000088000020640000206600002073
:101EF000680000206A0000206C0000206E000020B6
:101F00007000002072000020740000207C0000207F
:101F1000800000208400002000140040000C0040DD
:101F200089000020A082424240000020440000209E
:101F30004800002000BFFEE770B504460D4600F0E3
:101F400047F9204600F008F900F090F9284600F023
:101F500003F900F08BF900F03BF9611CC8B200F006
:101F6000FBF800F083F900F0AFF8064600F056F9F0
:101F7000304670BD70B506460C46154600F028F98F
:101F8000304600F0E9F800F071F9204600F0E4F87E
:101F900000F06CF9284600F0DFF800F067F900F077
:101FA0003DF90A2004F033F970BD2DE9F0410546F2
:101FB0000F46164600240AE0E00027FA00F0C2B2FD
:101FC0002819C1B2A020FFF7D5FF601CC4B2B442EB
:101FD000F2DBBDE8F081000010B500201049086078
:101FE0001048006820F440400E4908600846006828
:101FF00040F48040086000200B49C1F89C02022098
:1020000004F011F9012006490860022004F00BF9E0
:1020100000200549C1F89802022004F004F910BD1F
:102020009882404200040240008040421CB50121D9
:10203000022001F02BFDC020009001208DF804004B
:1020400000208DF8060003208DF8050001208DF892
:10205000070069460448FFF74AFD0120034908606C
:102060000349C1F89C021CBD000402409882404212
:102070000080404210B5002010490860022004F0A2
:10208000D2F80F48006820F440400D490860084627
:10209000006840F48040086001200A49C1F89C02B1
:1020A000022004F0C0F8012004490860022004F076
:1020B000BAF800200349C1F8980210BD9882404246
:1020C000000402400080404270B5002413480068BC
:1020D00020F4404011490860084600680860002567
:1020E00017E000200E490860022004F09CF801204F
:1020F0000C49C1F898026006040E80210748FFF7DA
:1021000061FD08B1601CC4B2012004F08CF8681CA9
:10211000C5B2082DE5DB204670BD0000000402407A
:1021200098824042008040422DE9F04180460F46AF
:102130001446002600250AE036023819401B401ECE
:10214000C1B24046FFF7F8FE0644681CC5B2A5427E
:10215000F2DB30B2BDE8F08170B504461948006882
:1021600020F44040174908600846006840F4804069
:10217000086000201449086000251FE004F080007A
:1021800020B180210F48FFF728FD03E080210D4892
:10219000FFF721FD6006040E022004F044F8012040
:1021A00009490860022004F03EF800200749C1F800
:1021B0009802022004F037F8681CC5B2082DDDDB58
:1021C00070BD0000000402409882404200804042FE
:1021D00010B51048006820F440400E4908600846D9
:1021E000006840F48040086080210A48FFF7F5FC51
:1021F00001200949086000BF80210648FFF7E2FC82
:1022000008B9012010BD80210248FFF7E4FC00BF9F
:102210000020F7E7000402409882404210B51048C1
:10222000006820F440400E4908600846006840F409
:102230008040086000200B4908600B49C1F89C02EF
:10224000012003F0F0FF01200649086003F0EBFFD6
:1022500001200549C1F89C02042003F0E4FF10BDF1
:1022600000040240988240420080404210B50024A1
:102270000020144908601448006820F440401249C6
:10228000086008460068086001201049C1F89C02F7
:1022900003F0C9FF01200B49086003F0C4FF07E009
:1022A000601CC4B2FA2C03DDFFF7B8FF012010BD9B
:1022B00080210548FFF786FC0028F1D1014908601C
:1022C00000BFF4E798824042000402400080404290
:1022D00000B52DED108B9DB0F0EE409AB0EE60AAE7
:1022E000F0EE41AAB0EE61CAB0EE42BAF0EE62BAC8
:1022F000B0EE439AB0EE638AF0EE448AFE4890ED69
:10230000000A20EE000A8DED0B0A90ED000AFB4852
:10231000D0ED000A20EE200AF0EE40FAF64890EDEB
:10232000000AF748D0ED000A20EE200AF0EE40CA7D
:10233000F14890ED000AF348D0ED000A20EE200AA3
:102340008DED0A0AED4890ED000A20EE000A8DEDB1
:10235000090A90ED000AEA48D0ED000A20EE200AB2
:102360008DED080AE54890ED000AE648D0ED000A38
:1023700020EE200AB0EE40DAE14890ED000A20EEAF
:10238000000AF0EE40DA90ED000ADE48D0ED000AD7
:1023900020EE200A8DED070A90ED000A20EE000ADB
:1023A0008DED060A6CEE0C0A4BEE0B0A4BEEAB0AF7
:1023B000B0EE600A03F0A6FF8DED1B0A9DED1B0A2F
:1023C0002CEE000AB0EE40CA9DED1B0A2BEE000A6F
:1023D000B0EE40BA9DED1B0A2BEE800AF0EE40BA3B
:1023E00069EE090A48EE080A48EEA80AB0EE600A4B
:1023F00003F088FF8DED1B0A9DED1B0A29EE000AF4
:10240000B0EE409A9DED1B0A28EE000AB0EE408A1D
:102410009DED1B0A28EE800AF0EE408AB0EE000A1D
:1024200069EE000AB6EE000A30EE6D1A9DED060A5E
:1024300031EE400A20EE800AF0EE000A68EE201A23
:10244000DDED080A9DED0A1A70EEC10A01EEA00A40
:10245000F0EE000A68EEA00A3DEE2C1A00EE810AAA
:102460008DED1A0AB0EE000A29EE001A9DED080A59
:10247000DDED0A0A30EE200A21EE000AF0EE000A35
:1024800028EE201ADDED090AF6EE001A71EEE01AC8
:10249000DDED060A71EEE00A01EE200AF0EE000A18
:1024A00028EEA01ADDED070A70EEEF0A01EE200A11
:1024B0008DED190AB0EE000A29EE000A7DEE6C0AD5
:1024C00020EE200AF0EE000A28EE201ADDED070AC1
:1024D00070EEAF0A01EE200AF0EE000A28EEA01A14
:1024E000DDED090AF6EE001A71EEE00A70EEED0A73
:1024F00001EE200A8DED180A9DED1A0ADDED1A0A8B
:1025000020EE200ADDED190A9DED191A00EE810A70
:1025100010EE101A084605F01FFDCDE902019DEDF1
:10252000020B03F009FA8DED040B9DED040B51EC49
:10253000100B04F097FF17909DED180A8DED160A09
:102540003DEE6C0AF0EE000A20EE200A8DED150A31
:102550009DED070A3FEE800AF0EE000A20EE200A09
:102560008DED140A9DED0B0ADDED090A30EE600ACF
:1025700070EE6D0A9DED060A30EE800A8DED130AAD
:102580009DED170AF0EE000A60EE200AB6EE000A92
:1025900030EE6D1A9DED060A31EE400A20EE800AFB
:1025A000DDED160AB0EE001A60EE810A3DEE6C1AFF
:1025B00000EE810A8DED120A9DED170AF0EE000A79
:1025C00020EE201A9DED080ADDED0A0A30EE600AC1
:1025D00061EE000A9DED160AB0EE001A20EE011A17
:1025E0009DED070A3FEE800A41EE000ACDED110A8B
:1025F0009DED170AF0EE000A20EE200A7CEE8D0A0F
:1026000020EE200ADDED160AB0EE001A20EE811A47
:10261000DDED090AF6EE001A71EEE00A70EEED0A41
:1026200001EE200A8DED100A9DED130A2BEE000A33
:10263000DDED140A0BEEE00ADDED100A68EE200A6B
:102640009DED111A48EEC10A30EE200A8DED0F0AF9
:102650009DED150A2BEE800ADDED130A0CEE600AE3
:10266000DDED120A68EEA00A9DED101A49EE410A4E
:1026700030EE200A8DED0E0A9DED140A2CEE000AB4
:10268000DDED150A0BEE600ADDED110A69EE200A98
:102690009DED121A48EE410A30EE200A8DED0D0A2A
:1026A0009DED0F0AB5EEC00AF1EE10FA72D09DED65
:1026B0000E0AB5EEC00AF1EE10FA6BD09DED0D0AD0
:1026C000B5EEC00AF1EE10FA64D09DED0F0ADFED11
:1026D0000E0A60EE200A0D4890ED000A9FED0C1ADC
:1026E00000EE810A80ED000A9DED0E0ADFED060A7C
:1026F00060EE200A07480FE0480100204C0100204E
:102700005001002054010020A69B443B58010020AA
:10271000A69BC43A5C01002090ED000A1FED041A4C
:1027200000EE810A80ED000A9DED0D0A5FED0A0AB8
:1027300060EE200AD94890ED000A1FED0B1A00EE5A
:10274000810A80ED000AD64890ED000ADDED0F0AFF
:102750009FEDD41A01EE200A30EE290AF0EE409ADD
:10276000D14890ED000ADDED0E0A9FEDCE1A01EE84
:10277000200A30EE0A0AB0EE40AAC84890ED000ADE
:10278000DDED0D0A9FEDC71A01EE200A30EE2A0A90
:10279000F0EE40AAC54890ED000AB1EE400A20EEE6
:1027A000290AC348D0ED000A00EECA0AC14890EDDC
:1027B000001AF0EE400A41EE6A0ABF4890ED000AA6
:1027C0001FED2D1A00EE810A8DED0C0A90ED000A26
:1027D00020EE290AB648D0ED000A00EEAA0AB54854
:1027E000D0ED000A00EECA0AB048D0ED000A1FED95
:1027F000381AB0EE60EA00EE01EAAF4890ED000A48
:1028000020EE0A0AA948D0ED000A00EEEA0AA9481B
:10281000D0ED000A00EEA90AA548D0ED000A1FED90
:10282000441AF0EE60EA40EE01EAA34890ED000A97
:1028300020EE2A0A9D48D0ED000A00EE8A0A9C4844
:10284000D0ED000A00EEE90A9A48D0ED000A1FED2B
:10285000501AB0EE60FA00EE01FADDED0C0A60EEFF
:10286000A00A4EEE0E0A4EEEAE0A4FEE0F0AB0EE82
:10287000600A03F047FD8DED1B0A9DED0C0ADDEDAE
:102880001B0A20EE200A8C4880ED000A9DED1B0AF1
:102890002EEE000A854880ED000A9DED1B0A2EEE03
:1028A000800A834880ED000A9DED1B0A2FEE000A86
:1028B000804880ED000A7D4890ED000AF8EE000A9D
:1028C00020EE200AD0ED000A20EE200A784890ED94
:1028D000001AF0EE000A21EE201AD0ED000A01EEF7
:1028E000600AF7EE000A30EE200A10EE101A0846D1
:1028F00005F032FBCDE902016D4890ED000AF0EEE3
:10290000000A20EE200A6B48D0ED000A20EE200AD3
:102910006948D0ED000AB0EE001A60EE810A634803
:1029200090ED001A00EE810A10EE101A084605F02C
:1029300013FBCDE900019DED021B9DED000B02F0A4
:102940009FFE8DED040B9DED040B51EC100B04F07C
:1029500089FD5A494860554890ED000AF8EE000A92
:1029600020EE200A5348D0ED000A20EE200A5248FB
:10297000D0ED000AB0EE001A60EE810A4C4890EDEE
:10298000001A00EE810A10EE101A084605F0E4FA6B
:10299000CDE902019DED020B02F056FB8DED040B1B
:1029A0009DED040B51EC100B04F05CFD43490860F5
:1029B0003F48D0ED000AB8EE000A20EE800AD0EDC4
:1029C000000A20EE200A3B48D0ED000AB0EE001AC3
:1029D00020EE811AD0ED000A01EE600AF7EE000A3F
:1029E00030EE200A10EE101A084605F0B5FACDE9CF
:1029F00002012E4890ED000AF0EE000A20EE200AB7
:102A00002B48D0ED000A20EE200A2B48D0ED000A1A
:102A1000B0EE001A60EE810A264890ED001A00EE32
:102A2000810A10EE101A084605F096FACDE9000169
:102A30009DED021B9DED000B02F022FE8DED040BBF
:102A40009DED040B51EC100B04F00CFD1B4988604C
:102A5000084690ED010ADFED1A0A20EE200A80ED0B
:102A6000010A90ED000ADFED160A20EE200A80ED43
:102A7000000A90ED020ADFED120A20EE200A80ED36
:102A8000020A1048006808B9012000E000200D4942
:102A900008601DB0BDEC108B00BD0000600100207F
:102AA000580100200000C8425C0100204C010020B9
:102AB000500100205401002048010020980400200B
:102AC000A34C65429C82424210B5FFF7AFFA7022D8
:102AD00000213C20FFF74EFA202201213C20FFF785
:102AE00049FA002202213C20FFF744FA0A213C2047
:102AF000FFF722FA04460B213C20FFF71DFA04469B
:102B00000C213C20FFF718FA0446012010BD0000FC
:102B100000B52DED108B89B0B0EE40BAF0EE60BA82
:102B2000B0EE418AF0EE618AB0EE429AF0EE629A1F
:102B30008DED069B8DED048B314890ED000BB0EED2
:102B400040CAF0EE60CA90ED000BB0EE40CAF0EE65
:102B500060CA9DED048B53EC182B2A4890ED000BB6
:102B600051EC100B04F0B0FC41EC1A0B9DED069BF0
:102B700053EC192B51EC1A0B04F0A6FC41EC1F0B83
:102B800053EC1F2B51EC1A0B04F046FD41EC1E0BCD
:102B900053EC1C2B51EC1B0B05F0F4F841EC1F0B14
:102BA00053EC1E2B04F018FF53EC1C2BCDE9000155
:102BB0009DED000B51EC100B04F086FC41EC1D0B5D
:102BC00053EC1E2B9FED100B51EC100B05F0DAF8B7
:102BD00041EC1F0B53EC1A2B04F0FEFECDE9020171
:102BE0009DED020B074880ED000B054880ED00DBF2
:102BF000B0EE4D0AF0EE6D0A09B0BDEC108B00BDD1
:102C0000E8000020F0000020000000000000F03F7D
:102C100000B52DED108B89B0B0EE40BAF0EE60BA81
:102C2000B0EE418AF0EE618AB0EE429AF0EE629A1E
:102C30008DED069B8DED048B314890ED000BB0EED1
:102C400040CAF0EE60CA90ED000BB0EE40CAF0EE64
:102C500060CA9DED048B53EC182B2A4890ED000BB5
:102C600051EC100B04F030FC41EC1A0B9DED069B6F
:102C700053EC192B51EC1A0B04F026FC41EC1F0B02
:102C800053EC1F2B51EC1A0B04F0C6FC41EC1E0B4D
:102C900053EC1C2B51EC1B0B05F074F841EC1F0B93
:102CA00053EC1E2B04F098FE53EC1C2BCDE90001D5
:102CB0009DED000B51EC100B04F006FC41EC1D0BDC
:102CC00053EC1E2B9FED100B51EC100B05F05AF836
:102CD00041EC1F0B53EC1A2B04F07EFECDE90201F0
:102CE0009DED020B074880ED000B054880ED00DBF1
:102CF000B0EE4D0AF0EE6D0A09B0BDEC108B00BDD0
:102D0000F800002000010020000000000000F03F5B
:102D100000B52DED108B89B0B0EE40BAF0EE60BA80
:102D2000B0EE418AF0EE618AB0EE429AF0EE629A1D
:102D30008DED069B8DED048B314890ED000BB0EED0
:102D400040CAF0EE60CA90ED000BB0EE40CAF0EE63
:102D500060CA9DED048B53EC182B2A4890ED000BB4
:102D600051EC100B04F0B0FB41EC1A0B9DED069BEF
:102D700053EC192B51EC1A0B04F0A6FB41EC1F0B82
:102D800053EC1F2B51EC1A0B04F046FC41EC1E0BCC
:102D900053EC1C2B51EC1B0B04F0F4FF41EC1F0B0C
:102DA00053EC1E2B04F018FE53EC1C2BCDE9000154
:102DB0009DED000B51EC100B04F086FB41EC1D0B5C
:102DC00053EC1E2B9FED100B51EC100B04F0DAFFAF
:102DD00041EC1F0B53EC1A2B04F0FEFDCDE9020170
:102DE0009DED020B074880ED000B054880ED00DBF0
:102DF000B0EE4D0AF0EE6D0A09B0BDEC108B00BDCF
:102E00000801002010010020000000000000F03F39
:102E1000F0EE401AB7EE000A30EE410A20EE210A29
:102E200000EE810A7047000010B5C82400202E492A
:102E3000486200212C488162C162A0F85210A0F8BB
:102E40005410A0F8561031E000F0ECF82748407814
:102E50002649097840EA012000B223490880234826
:102E6000C0782249897840EA012000B21E49488092
:102E70001E4840791D49097940EA012000B21A49EB
:102E800088800846406AB1F9001008441649486233
:102E90000846806AB1F90210014413488162C06A91
:102EA0001149B1F9041001440F48C1622000A4F196
:102EB00001018CB2C8D1C8240B48406A90FBF4F0E1
:102EC00000B2094948820846806A90FBF4F001B2DA
:102ED00005488182C06A90FBF4F001B20248C182C9
:102EE000FDF7EAFC10BD00002002002010020020C7
:102EF00010B5C82400212F48016741678167002071
:102F00002C49C88000212B480181418132E000F02A
:102F100089F82948407A2849097A40EA012000B214
:102F20002449A1F84C002448C07A2349897A40EA10
:102F3000012001B21F48A0F84E101F48407B1E49D7
:102F4000097B40EA012001B21A48A0F85010006F36
:102F50001849B1F94C10014416480167416FB0F9A6
:102F60004E00014413484167816FB0F9500001449D
:102F7000104881672000A4F101018CB2C7D1C82498
:102F80000C48006F90FBF4F001B20A48A0F85E1004
:102F9000406F90FBF4F001B20648A0F86010806F1B
:102FA00090FBF4F001B20348A0F86210FDF784FC36
:102FB00010BD0000200200201002002010B50022E9
:102FC0006B21D020FEF7D6FF07221921D020FEF773
:102FD000D1FF42223721D020FEF7CCFF40226A21C8
:102FE000D020FEF7C7FF02221A21D020FEF7C2FF31
:102FF00010221B21D020FEF7BDFF09221C21D0206A
:10300000FEF7B8FF7521D020FEF796FF0446682C26
:1030100001D1002010BD0220014908700120F9E70C
:103020002C00002010B53B21D020FEF785FF284959
:1030300008703C21D020FEF77FFF254948703D21D4
:10304000D020FEF779FF224988703E21D020FEF77C
:1030500073FF1F49C8703F21D020FEF76DFF1C4948
:1030600008714021D020FEF767FF194948714121BE
:10307000D020FEF761FF164988714221D020FEF76B
:103080005BFF1349C8714321D020FEF755FF10495B
:1030900008724421D020FEF74FFF0D4948724521A8
:1030A000D020FEF749FF0A4988724621D020FEF75A
:1030B00043FF0749C8724721D020FEF73DFF04496E
:1030C00008734821D020FEF737FF0149487310BD2F
:1030D0001002002010B52DED088BFFF7A3FF5F480D
:1030E00040785E49097840EA01205D49498A401AE2
:1030F00000B25B4908805948C0785849897840EA4D
:1031000001215748808A081A00B25549488053481F
:1031100040795249097940EA012000B2504988803B
:103120000846B0F9000000EE100AB8EEC00A0846E2
:1031300080ED060AB0F9020000EE100AB8EEC00AEF
:10314000084680ED070AB0F9040000EE100AB8EE58
:10315000C00A084680ED080A4048407A3F49097A8B
:1031600040EA012000B23E49A1F84C003B48C07A39
:103170003A49897A40EA012001B23948A0F84E1054
:103180003648407B3549097B40EA012001B234488A
:10319000A0F850103148C0793049897940EA0124BB
:1031A000204604F005FC41EC1B0B9FED2E0B53EC6D
:1031B000102B04F031FA41EC1A0B9FED2C0B53EC61
:1031C000102B04F081F941EC190B9FED2A0B53EC05
:1031D000102B04F001FC41EC180B04F0A5FB84B2A9
:1031E0001F48B0F94C10B0F95E00081A00EE100A42
:1031F000B8EEC00A1A4880ED190AB0F94E10B0F9BD
:103200006000081A00EE100AB8EEC00A144880EDFB
:103210001A0AB0F95010B0F96200081A00EE100A4C
:10322000B8EEC00A0E4880ED1B0A90F84B0001284A
:1032300005D1FFF7F9FD0020094981F84B00084846
:1032400090F89700012805D1FFF752FE00210448AD
:1032500080F89710BDEC088B10BD00001002002014
:10326000200200200000000000407540A4703D0ACC
:10327000D7434240000000000000244010B500F099
:1032800009F8642002F0C3FF00F018F8642002F08F
:10329000BEFF10BD10B5FEF79BFFEE20FEF75CFFF2
:1032A000FEF7E4FF1E20FEF757FFFEF7DFFFFEF7F5
:1032B000B5FF0A2002F0ABFF10BD000070B501247D
:1032C00030E0FEF785FFEE20FEF746FFFEF7CEFF6B
:1032D000A02101EB4401C8B2FEF73EFFFEF7C6FF96
:1032E000FEF79CFF012002F092FFFEF771FFEF2036
:1032F000FEF732FFFEF7BAFFFEF7E6FE0546FEF7E1
:103300006BFEFEF7E1FE0646FEF7B4FEFEF786FF13
:1033100046EA0520054921F814000A2002F077FF4B
:10332000601CC4B2062CCCDD70BD0000C0010020C2
:1033300000BFFEE71CB50121084600F0B7FB0121E4
:10334000084600F0A3FB0F20009002208DF8040037
:1033500003208DF8050000208DF8060001208DF86F
:10336000070069460F48FEF7C2FB012200210D4805
:10337000FEF705FC012211460A48FEF700FC012277
:1033800002210848FEF7FBFB012203210548FEF756
:10339000F6FB01F017FC00231A461946184600F008
:1033A00003F81CBD0000024030B5B0F57A7F01DDA6
:1033B0004FF47A70B1F57A7F01DD4FF47A71B2F58E
:1033C0007A7F01DD4FF47A72B3F57A7F01DD4FF435
:1033D0007A7300F57A744FF080456C6301F57A7466
:1033E000AC6302F57A74EC6303F57A742C6430BD37
:1033F0002DE9F04100250026002703F037F8434867
:10340000008800B24249434A127821F8120042482B
:10341000008800B241493F4A127821F81200404822
:10342000008800B23F493B4A127821F8120000247C
:103430000DE0374830F914000544384830F91400DD
:103440000644384830F914000744601CC4B20A2C02
:10345000EFDB0A2095FBF0F03349B1F90010401A78
:1034600000EE100AB8EEC00A3048D0ED000A20EE97
:10347000200ABDEEC00A2E4880ED000A0A2096FB05
:10348000F0F02C49B1F90010401A00EE100AB8EE25
:10349000C00A2948D0ED000A20EE200ABDEEC00A7D
:1034A000264880ED000A0A2097FBF0F02449B1F984
:1034B0000010401A00EE100AB8EEC00A2148D0ED04
:1034C000000A20EE200ABDEEC00A1F4880ED000A67
:1034D00010480078401C0F490870084600780A28F8
:1034E00001D1002008701948007860B10120184906
:1034F0000860FEF75DFC00201649C1F8A8021349D8
:103500000870FEF7DBFBBDE8F08100004000002002
:10351000CE0100208A00002044000020E2010020AB
:1035200048000020F6010020700000207C000020F0
:1035300034000020720000208000002038000020AD
:1035400074000020840000203C0000204C0000207B
:10355000A8824242008042427047000070B50021BC
:1035600000230F22C4781CB3174C246804F4E064D1
:10357000C4F5E064C4F30721C1F10404E3B20A41D5
:1035800044789C40E1B28478144021430C07210E1A
:103590000E4C05786155047804F01F050124AC40F9
:1035A00005786D11AD0005F1E025C5F8004109E091
:1035B000047804F01F050124AC40054D067876110F
:1035C00045F8264070BD00000CED00E000E400E08E
:1035D00080E100E002490143024A116070470000A7
:1035E0000000FA050CED00E000B587B001210620CF
:1035F00000F05CFA01210E2000F048FA1D208DF841
:10360000040000208DF8050001208DF806008DF8DB
:10361000070001A8FFF7A2FF1E208DF8040000207C
:103620008DF8050002208DF8060001208DF80700B6
:1036300001A8FFF793FFC020059002208DF8180025
:1036400003208DF8190000208DF81A0002208DF853
:103650001B0005A99448FEF74AFA032005900220B2
:103660008DF8180003208DF8190000208DF81A003D
:1036700002208DF81B0005A98C48FEF738FA0222BB
:1036800006218948FEF77BFA022207218648FEF7C9
:1036900076FA022200218548FEF771FA0222012102
:1036A0008248FEF76CFA5320814908800020ADF86B
:1036B00008000A20ADF80A000120ADF80C00002037
:1036C000ADF80E00ADF8100002A97948283801F0D5
:1036D00075F80420ADF808000A20ADF80A000120B2
:1036E000ADF80C000020ADF80E00ADF8100002A9F6
:1036F0006F48283801F062F80820ADF808000A2069
:10370000ADF80A000120ADF80C000020ADF80E0065
:10371000ADF8100002A96648283801F04FF80C20D7
:10372000ADF808000A20ADF80A000120ADF80C0041
:103730000020ADF80E00ADF8100002A95C48283852
:1037400001F03CF801215A48283801F00EF8012216
:1037500002215748283801F068F801220421544812
:10376000283801F062F8012208215148283801F078
:103770005CF8012210214E48283801F056F84FF429
:103780007040059002208DF8180003208DF8190074
:1037900000208DF81A0002208DF81B0005A945486D
:1037A000FEF7A5F902220C214248FEF7E8F90222B1
:1037B0000D214048FEF7E3F902220E213D48FEF7B5
:1037C000DEF902220F213B48FEF7D9F953203A498E
:1037D00008800020ADF808000A20ADF80A0001209A
:1037E000ADF80C000020ADF80E00ADF8100002A9F5
:1037F0003148283800F0E2FF0420ADF808000A2024
:10380000ADF80A000120ADF80C000020ADF80E0064
:10381000ADF8100002A92848283800F0CFFF082092
:10382000ADF808000A20ADF80A000120ADF80C0040
:103830000020ADF80E00ADF8100002A91E4828388F
:1038400000F0BCFF0C20ADF808000A20ADF80A001B
:103850000120ADF80C000020ADF80E00ADF810000E
:1038600002A91548283800F0A9FF0121124828387C
:1038700000F07BFF012202210F48283800F0D5FF1D
:10388000012204210C48283800F0CFFF0122082132
:103890000948283800F0C9FF0122102106482838BD
:1038A00000F0C3FF07B000BD000802400004024062
:1038B00028040040000C0240280800407047000027
:1038C00010B52DED088B00249FED650AB0EE40AADF
:1038D0009FED630AF0EE40AA9FED610AB0EE40BA98
:1038E000FFF7F8FBFFF784FD5E49B1F9000004F033
:1038F00048F841EC190B9FED5C2B9FED5D1BB0EE82
:10390000490AF0EE690AFFF703F9B0EE408AF0EEDB
:10391000608A51EC180B03F0D7FF00B25149C88000
:10392000B1F9020004F02DF841EC190B9FED4E2B7C
:103930009FED4F1BB0EE490AF0EE690AFFF768F9F8
:10394000B0EE408AF0EE608A51EC180B03F0BCFF39
:1039500001B2444801810146B1F9040004F011F8B4
:1039600041EC190B9FED402B9FED411BB0EE490A36
:10397000F0EE690AFFF7CCF9B0EE408AF0EE608A0B
:1039800051EC180B03F0A0FF01B23648418190EDD5
:10399000190AF0EE400A9FED381A384890ED000AF7
:1039A000FFF736FA2F4880ED220A90ED220A3348BD
:1039B00080ED000A2B4890ED1A0AF0EE400A9FEDC8
:1039C0002E1A2F4890ED000AFFF722FA254880EDC5
:1039D000230A90ED230A2A4880ED000A214890ED41
:1039E0001B0AF0EE400A9FED241A264890ED000ACB
:1039F000FFF70EFA1B4880ED240A90ED240A2148B7
:103A000080ED000A174890ED220ADFED1F0A20EE34
:103A1000200ABDEEC00A10EE100A01B21148A0F84B
:103A2000521090ED230ADFED180A20EE200ABDEEB9
:103A3000C00A10EE100A01B20A48A0F8541090ED26
:103A4000240ADFED110A20EE200ABDEEC00A10EEB6
:103A5000100A01B20348A0F85610BDEC088B10BD47
:103A600000000000200200200000000000001440C0
:103A70009A9999999999A93FCBA1C53E180100201F
:103A80001C01002020010020E4A40B3A29B1064AC1
:103A900012680243044B1A6004E0034A126882432E
:103AA000014B1A60704700003038024029B1064AC5
:103AB00012680243044B1A6004E0034A126882430E
:103AC000014B1A60704700004038024029B1064A95
:103AD00012680243044B1A6004E0034A12688243EE
:103AE000014B1A607047000044380240F0B50021D5
:103AF00000220024022500260223324F3F6807F0EF
:103B00000C0121B1042905D0082937D105E02E4F39
:103B1000076036E02D4F076033E02A4F3F1F3F68B4
:103B2000C7F38056274F3F1F3F6807F03F036EB132
:103B3000264FB7FBF3F7DFF88CC0ACF1040CDCF8D0
:103B400000C0CCF3881C07FB0CF40CE01E4FB7FB45
:103B5000F3F7DFF870C0ACF1040CDCF800C0CCF374
:103B6000881C07FB0CF4174F3F1F3F68C7F3014742
:103B70007F1C7D00B4FBF5F7076002E0124F076081
:103B800000BF00BF0F4F3F6807F0F0010909104F59
:103B90007A5C0768D74047600A4F3F6807F4E051F6
:103BA000890A0B4F7A5C4768D7408760054F3F68AA
:103BB00007F46041490B064F7A5C4768D740C760FD
:103BC000F0BD0000083802400024F40000127A0022
:103BD000000000203FB54B480078401C4949087060
:103BE00000227CE0484830F81200B0F52F6F05DC69
:103BF000454830F81200B0F5487F05DA434830F800
:103C00001200414921F812003F4931F8121009B25F
:103C10003C4C2078C41700EB9474A410A0EB8404EF
:103C20003B4D05EBC20525F81410374830F812005B
:103C3000364921F812000020364921F8120002A965
:103C400021F8120046F2A8102DF81200002331E0EE
:103C50002F4800EBC20030F9130002A931F812100E
:103C6000884207DD2A4800EBC20030F8130002A9A1
:103C700021F81200264800EBC20030F913003DF88D
:103C80001210884207DA224800EBC20030F8130015
:103C900080B22DF812001E4800EBC20030F813006D
:103CA0001C4931F81210084400B21A4921F81200D8
:103CB000581CC3B2042BCBDB02A931F812103DF81B
:103CC00012402144134C34F91240601A00EBD071B9
:103CD000491009B20F4C24F81210501CC2B2042A29
:103CE00080DB0C4800880C49C8800A4840888880DE
:103CF0000848C088488007488088088000F00EF88F
:103D00003FBD0000B4010020580600207E060020C0
:103D100088060020AC0100206806002008480089C1
:103D200000B20849C8810648408900B208820448A8
:103D3000808900B248820248C08900B288827047F8
:103D4000580600206806002070470000F0B589B0D2
:103D500005460E4600270024202101A8FCF7A5FAFD
:103D6000AA208DF804008DF80500EF208DF80600DC
:103D700002208DF807008DF808508DF8096000BF0B
:103D800005E001A8005D3844C7B2601CC4B2062C2F
:103D9000F7DB8DF80A7000240DE001A8015D0848EA
:103DA00001F0DAF800BF4021054801F00EF80128C3
:103DB000F9D1601CC4B2072CEFDB09B0F0BD0000E4
:103DC000001001400CB500200190009034480068BC
:103DD00040F480303249086000BF3148006800F488
:103DE000003000900198401C0190009818B901988B
:103DF000B0F5A04FF1D12A48006800F4003010B1AE
:103E00000120009001E0002000900098012846D198
:103E100023484030006840F080502149403108601C
:103E20002048006840F440401E4908601C480830A3
:103E300000681B49083108600846006840F40040EB
:103E400008600846006840F4A05008601648091F42
:103E50000860081F006840F08070091F086000BFFC
:103E60000F48006800F000700028F9D040F205709B
:103E70000E4908600A480830006820F0030008492D
:103E8000083108600846006840F00200086000BF82
:103E900003480830006800F00C000828F8D10CBD79
:103EA000003802400070004008544007003C0240C7
:103EB000042808D14FF0E021096941F004014FF0D6
:103EC000E022116107E04FF0E021096921F00401CF
:103ED0004FF0E022116170477FB56846FFF706FE9C
:103EE0004FF47A710198B0FBF1F4E4082146481EC2
:103EF000B0F1807F00D31BE0481E4FF0E0225061FC
:103F000050170F22002807DA13071E0E0B4B00F084
:103F10000F052D1F5E5503E013071D0E084B1D54A2
:103F200000BF00204FF0E02290610720106100BF29
:103F30006FF00400FFF7BCFF7FBD000018ED00E04C
:103F400000E400E002480068401E01490860704734
:103F50001000002010B51548006840F470001349A7
:103F600008601348006840F0010011490860002013
:103F70000F49083108600E4800680E4908400C4996
:103F800008600D48091D0860081F006820F48020A3
:103F9000091F0860002006490C310860FFF712FF76
:103FA0004FF0006001498039086010BD88ED00E0E5
:103FB00000380240FFFFF6FE10300024F0B50C463A
:103FC000154600210022068C4FF6FE773E400684FF
:103FD000018B028C4FF60C7631407E1C06EA0316EC
:103FE0002E4331434FF6F576324044F0010632431A
:103FF00001830284F0BDF0B50C4615460021002275
:104000000026078C4FF6EF7C07EA0C070784018B2C
:10401000028C4FF6FF7707EA041640F6FF47394057
:104020004FF6FF7707EA033739434FF6FF7707EA82
:10403000052739434FF65F773A4046F010073A4379
:1040400001830284F0BDF0B50C4615460021002224
:104050000026078C4FF6FF6C07EA0C070784818B5C
:10406000028C4FF6FF7707EA04264FF60C773940AB
:104070004FF6FF7707EA03172F4339434FF2FF57F5
:104080003A4046F480773A4381830284F0BDF0B52C
:104090000C461546002100220026078C4EF6FF7CB8
:1040A00007EA0C070784818B028C4FF6FF7707EA3B
:1040B000043640F6FF4739404FF6FF7707EA0527F9
:1040C00039434FF6FF7707EA0337394345F6FF7761
:1040D0003A4046F480573A4381830284F0BD0000A1
:1040E00010B502216F4800F058FB40B302216E4822
:1040F00000F038FB6D48006800F0400048B16948A6
:1041000000F03FFB6A4908800221664800F0D4FBBA
:1041100021E00021634800F0CFFB624800F031FB52
:10412000644908800846008861490988884207DB9D
:10413000604800885E490988401A5F4908800AE0A3
:104140005B4800884FF6FF71081A5A4909880844ED
:10415000401C5949088053481030008800F0040082
:1041600020B34FF6FB704F49103108804FF6FF30F7
:1041700008804E48006800F0800028B1494800F0EF
:1041800003FB4E4908801DE0464800F0FDFA4C490B
:1041900008800846008849490988884207DB484862
:1041A000008846490988401A434948800AE0434844
:1041B00000884FF6FF71081A414909880844401CDD
:1041C0003D49488037481030008800F0080020B38F
:1041D0004FF6F7703349103108804FF2FF700880B6
:1041E0003848006800F0010028B12E4800F0CFFAEE
:1041F000354908801DE02B4800F0C9FA3349088092
:104200000846008830490988884207DB2F48008823
:104210002D490988401A284988800AE02A480088E0
:104220004FF6FF71081A294909880844401C2249A1
:1042300088801C481030008800F0100020B34FF632
:10424000EF701849103108804EF6FF7008801D4845
:10425000006800F0020028B1124800F09BFA1C49E7
:1042600008801DE00F4800F095FA1A4908800846BA
:10427000008817490988884207DB164800881449D6
:104280000988401A0C49C8800AE0114800884FF696
:10429000FF71081A0F4909880844401C0649C88064
:1042A00010BD00000004004000080040100802405B
:1042B0008C0100208E010020580600209001002073
:1042C0009201002010040240940100209601002079
:1042D000980100209A01002010B56E48008800F077
:1042E000020028B34FF6FD706A4908804FF6FF5070
:1042F00008806948006800F4805030B16548103883
:1043000000F03FFA654908801EE06248103800F06E
:1043100038FA63490880084600886049098888425D
:1043200007DB5F4800885D490988401A5D490881BC
:104330000AE05A4800884FF6FF71081A5849098860
:104340000844401C574908815248008800F0040086
:1043500028B34FF6FB704F4908804FF6FF300880B6
:104360004D48006800F4005030B14A48103800F061
:104370000BFA4D4908801EE04648103800F004FA58
:104380004A4908800846008847490988884207DB6F
:104390004648008844490988401A424948810AE051
:1043A000414800884FF6FF71081A404909880844BF
:1043B000401C3C4948813748008800F0080028B379
:1043C0004FF6F770334908804FF2FF70088032488B
:1043D000006800F4804030B12E48103800F0D7F962
:1043E000334908801EE02B48103800F0D0F93149DD
:1043F0000880084600882E490988884207DB2D4836
:1044000000882B490988401A264988810AE02848F3
:1044100000884FF6FF71081A264909880844401C95
:10442000204988811B48008800F0100028B34FF60F
:10443000EF70184908804EF6FF7008801648006833
:1044400000F4004030B11348103800F0A3F91A49C5
:1044500008801EE00F48103800F09CF917490880CA
:104460000846008814490988884207DB13480088F9
:1044700011490988401A0B49C8810AE00E48008892
:104480004FF6FF71081A0D4909880844401C054978
:10449000C88110BD10080040100C02409C01002093
:1044A0009E01002058060020A0010020A20100204B
:1044B000A4010020A6010020A8010020AA010020DC
:1044C00010B52DED068B01216E4800F066F901282C
:1044D0007DD101216B4800F045F900206949243164
:1044E000086069490860FFF775FBFDF793FB01F071
:1044F00087FF66480088401C64490880644800784B
:10450000401C6349087063480088401C614908806A
:1045100008460088042815D1002008805E480078ED
:1045200028B101F00DFF00205C49087001E0FDF7A3
:1045300067FA5A48007828B9594890ED020A594854
:1045400080ED000A5848007860B9554890ED001A8F
:10455000F0EE410A90ED011AB0EE410A9FED531AB8
:10456000FCF7D2FB4A480078052190FBF1F201FBF1
:10457000120010B9552000F0FDFB454800780A28CC
:1045800052D14948007802284ED0454890ED010AA2
:10459000DFED470A80EE201A11EE104A204603F0A4
:1045A000DBFC41EC190BB0EE490AF0EE690A01F0B0
:1045B0005FF9B0EE408AF0EE608A51EC180B02F021
:1045C00051FF0AEE100A364890ED000A00E056E06E
:1045D000DFED370A80EE201A11EE104A204603F074
:1045E000BBFC41EC190BB0EE490AF0EE690A01F090
:1045F0003FF9B0EE408AF0EE608A51EC180B02F001
:1046000031FF00EE100A6AEE000A2A4890ED020A15
:10461000B8EEC00A20EE800ABCEEC00A264880ED43
:10462000000A00201A49087018480088012801D1A2
:1046300002F082FA15480088032801D102F0C8FD73
:1046400012480088052801D102F010FB0F480088AD
:10465000072801D101F050FF0C480088092806DB2B
:1046600002F000F802F04AF90020084908800548E5
:104670002430006804490968401A10490860BDECFC
:10468000068B10BD000C00403801002044010020C2
:104690003E010020460100202C0000206401002083
:1046A00098040020280000202D00002000000000B9
:1046B000A34C6542EC06002040010020340100209C
:1046C0001FB501212020FFF7F1F942F2107002908E
:1046D00042F2CF00ADF804000020ADF80C00ADF8B8
:1046E000060001A90D4800F02BFA37208DF80000D4
:1046F00001208DF8030000208DF801008DF80200E4
:104700006846FEF72BFF01221146044800F08DF8A1
:104710000121024800F029F81FBD000000140040EC
:1047200010B50121074800F038F8012804D10648E7
:104730000078401C044908700121024800F012F87A
:1047400010BD0000001400408900002021B1028843
:1047500042F08002028004E002884FF67F731A4024
:1047600002807047CA430282704721B1028842F03A
:104770000102028004E002884FF6FE731A400280B4
:1047800070470146486B70470146886B7047014689
:10479000C86B70470146086C704730B50246002070
:1047A00000230024158A05EA0103958905EA01041E
:1047B00013B10CB1012000E0002030BD70B50546FA
:1047C0000C46208850B92389A28861882846FFF7C3
:1047D000F5FBE188284600F086F925E020880428CA
:1047E0000AD12389A28861882846FFF704FCE18862
:1047F000284600F081F917E0208808280AD123898B
:10480000A28861882846FFF71EFCE188284600F050
:1048100080F909E02389A28861882846FFF737FCE0
:10482000E188284600F07EF970BD1AB183890B43F8
:10483000838102E083898B438381704770B50024B4
:1048400000220023058C4FF6FE7635400584028C4D
:104850008388048B4FF68F752C40B51E2C400D8835
:104860002C43751E2A408D892A434D882A43104DBA
:10487000A84202D00F4DA84213D14FF6F7752A4037
:10488000CD892A434FF6FB752A408D882A434FF67F
:10489000FF652B404FF6FF552B400D8A2B434D8A69
:1048A0002B43838004838D684563028470BD0000C0
:1048B00000000140000401400A460021018C4FF62F
:1048C000FD7319401143018470470A460021018B92
:1048D0004FF6F773194011430183704770B50024F8
:1048E00000220023058C4FF6EF7635400584028CBC
:1048F0008388048B48F6FF752C404FF6FF452C400B
:104900000D884FF6FF7606EA05252C434FF6DF7536
:104910002A408D8906EA05152A434D8806EA0515C1
:104920002A43154DA84202D0144DA8421DD14FF67E
:104930007F752A40CD894FF6FF7606EA05152A4392
:104940004FF6BF752A408D8806EA05152A434FF6B3
:10495000FF352B404FF2FF752B400D8A06EA850587
:104960002B434D8A06EA85052B43838004838D689B
:104970008563028470BD0000000001400004014016
:104980000A460021018B4FF2FF7319404FF6FF7367
:1049900003EA0223194301837047000070B5002425
:1049A00000220023058C4FF6FF6635400584028CFB
:1049B0008388848B4FF68F752C404FF6FC752C4006
:1049C0000D882C434FF6FF552A408D894FF6FF7610
:1049D00006EA05252A434D8806EA05252A43154D92
:1049E000A84202D0144DA8421DD14FF2FF752A40B3
:1049F000CD894FF6FF7606EA05252A434FF6FF35A7
:104A00002A408D8806EA05252A434EF6FF752B407D
:104A10004DF6FF752B400D8A06EA05152B434D8A8E
:104A200006EA05152B43838084838D68C563028461
:104A300070BD000000000140000401400A46002152
:104A4000818B4FF6F7731940114381837047000043
:104A500070B5002200230024058C4EF6FF76354009
:104A60000584038C8488828B48F6FF752A404FF6B4
:104A7000FF452A400D884FF6FF7606EA05252A43B2
:104A80004DF6FF752B408D8906EA05352B434D8881
:104A900006EA05352B430A4DA84202D0094DA8422B
:104AA00008D14BF6FF752C400D8A4FF6FF7606EACB
:104AB00085152C43848082838D680564038470BDD2
:104AC00000000140000401400A460021818B4FF2A2
:104AD000FF7319404FF6FF7303EA022319438183E2
:104AE000704741627047028B4FF6F3731A4002839E
:104AF000028B0A4302837047028B4FF2FF331A4046
:104B00000283028B4FF6FF7303EA01231A430283E9
:104B10007047828B4FF6F3731A408283828B0A436D
:104B200082837047828B4FF2FF331A408283828BDD
:104B30004FF6FF7303EA01231A4382837047000094
:104B400000220288184B98420ED0184B98420BD086
:104B5000B0F1804F08D0164B984205D0154B9842C3
:104B600002D0154B984204D14FF68F731A404B88F0
:104B70001A43124B984207D0114B984204D04FF67B
:104B8000FF431A400B891A4302804B68C3620B88AB
:104B90000385054B984202D0044B984201D18B7A91
:104BA0000386012383827047000001400004014016
:104BB0000004004000080040000C004000100040CD
:104BC0000014004000B589B001210846FEF76EFFD1
:104BD00040F6C41007905320ADF818000020ADF83F
:104BE0002000ADF81A0006A94FF08040FFF7A8FF9B
:104BF0006020ADF804000120ADF806004FF47A7093
:104C000003900020ADF810000120ADF8060001A9C6
:104C10008007FFF713FE0821C806FFF756FE01A91B
:104C20004FF08040FFF75AFE0821C806FFF7A8FEA4
:104C300001A94FF08040FFF7B1FE0821C806FFF739
:104C4000FDFE01A94FF08040FFF702FF0821C806D2
:104C5000FFF73AFF01218807FFF778FD0121880758
:104C6000FFF783FD09B000BD10B50D48008800F0C6
:104C7000080010B10A488088C4B240F225510848A3
:104C800000F0B0F850B140F22551054800F082F82C
:104C900003488088C4B22046FCF73EFE10BD0000E9
:104CA0000010014010B540F225512D4800F09AF84F
:104CB000002854D040F22551294800F06BF82848CC
:104CC000001D0088C4B22748274909784454264863
:104CD0000078401C244908700846007802283EDB12
:104CE000002008701F4840781E49097800EB012019
:104CF0001E490860084690ED001AB8EEC11AF0EEA1
:104D0000410A90ED011AB8EEC11AB0EE410AB6EEB2
:104D1000001AFEF77DF8BDEEC00A144880ED020AC5
:104D20008068B0F5FA6F03DD104840680F4988606D
:104D30000E4880680D4948600D48B0F9040040F203
:104D40001A4188420BDA09488068B0F5C87F06DD51
:104D50000020044908704870552000F00BF810BD81
:104D6000004400401E00002024000020EC0600202B
:104D70006806002010B504462146054800F0ECF80E
:104D800000BF4021024800F020F80028F9D010BDF3
:104D90000044004010B50022002340F66A14A142EE
:104DA00000D100BF0A1201249440A3B2DC43048066
:104DB00010BD21B1828942F40052828104E08289CF
:104DC0004DF6FF731A408281704702460020B1F50C
:104DD000007F00D100BF13880B400BB1012000E021
:104DE0000020704770B502460024002300250020F3
:104DF00040F66A16B14200D100BFC1F3421501F07E
:104E00001F03012606FA03F3012D02D196893340D0
:104E100006E0022D02D1168A334001E0968A334023
:104E20000C12012606FA04F41688344013B10CB1B2
:104E3000012000E0002070BDF0B5034600240026EC
:104E40000025002040F66A17B94200D100BF18467D
:104E5000C1F3421401F01F06012707FA06F5012CE1
:104E600001D10C3004E0022C01D1103000E01430EC
:104E70001AB107682F43076002E00768AF43076075
:104E8000F0BD00002DE9FF4705460E460024A1466F
:104E900000BFA046B08900B100BF2C8A24F4405462
:104EA000F08804432C82AC8941F20C608443B088C2
:104EB00031890843718908430443AC81AC8A24F4E6
:104EC0004074B0890443AC826846FEF70FFE204868
:104ED000854202D01F48854202D1DDF80C9001E0E6
:104EE000DDF80890A88900F4004040B109EBC90042
:104EF00000EB091031684900B0FBF1F707E009EB5E
:104F0000C90000EB091031688900B0FBF1F764209B
:104F1000B7FBF0F004012009642101FB1078A88997
:104F200000F4004040B1322000EBC800B0FBF1F0CB
:104F300000F00700044308E0322000EB0810642171
:104F4000B0FBF1F000F00F0004432C81BDE8FF87B7
:104F50000010014000140140C1F308028280704734
:104F600000BFFEE700B587B001210820FEF78EFDE7
:104F700001214804FEF79AFD072205212348FCF78A
:104F8000FEFD072206212148FCF7F9FD602005906F
:104F900002208DF818008DF8190000208DF81A00F5
:104FA00001208DF81B0005A91848FCF7A0FD4FF45F
:104FB000165001900020ADF80800ADF80A00ADF8D9
:104FC0000C00ADF810000C20ADF80E0001A910483F
:104FD000FFF758FF26208DF8000000208DF8010013
:104FE00003208DF8020001208DF803006846FEF7CB
:104FF000B5FA012240F225510548FFF71DFF0121B6
:105000000348FFF7D6FE07B000BD0000000C0240C9
:105010000044004003B401984100009850EAC120C8
:1050200018BF04204A0D18BF40F0010040F2FF7283
:10503000B2EB515F08BF40F00200012808BF052015
:1050400002B070470000000070B5C1482DED020BA2
:105050002DED0E8B82B0119D25F000449FEDBEDB3F
:105060009FEDBFEB84423EDBA4F140511098A1F1CB
:105070007F6108430FD0BC48844202DC28D11098DD
:1050800030B39DED100B02B0BDEC0E8B02B0BDE84D
:10509000704001F079B89DED100B53EC1D2B51ECD5
:1050A000100B02F099FC9DED100B41EC180B53EC2A
:1050B0001E2B51EC100B02F08FFC53EC182B02F05E
:1050C00003FA41EC100B02B0BDEC0E8B02B070BDC8
:1050D0000120FBF71AF902B0BDEC0E8B02B0BDE85F
:1050E000704001F065B8A1489FEDA18B844256DA6B
:1050F0009DED100BB4F1795F0ADA51EC100BFFF75C
:1051000089FF042808BF01F063F89DED100BDAE772
:1051100053EC102B51EC100B02F05EFC41EC190B20
:1051200095480621B0EE490AF0EE690A784400F08D
:1051300017FF53EC192B51EC100B02F04DFC41EC16
:105140001A0B8E48B0EE490AF0EE690A0421784441
:1051500000F006FF53EC192B51EC100B02F03CFC55
:1051600053EC182B02F0B0F941EC100B51EC1A0B78
:1051700053EC102B02F050FACDE900019DED000B2D
:1051800053EC102B9DED100B51EC100B02F024FC96
:105190009DED101B53EC112B02F096F9D2E09DED22
:1051A000100B51EC100B01F04AF853EC182B02F0E5
:1051B00011FD9FED730BCDE9000153EC102B9DED1C
:1051C000000B51EC100B02F007FC41EC190B6E4880
:1051D0000621B0EE490AF0EE690A784400F0C0FEFC
:1051E00053EC192B51EC100B02F0F6FB41EC1B0BAE
:1051F0006648B0EE490AF0EE690A0421784400F0EE
:10520000AFFE53EC192B51EC100B02F0E5FB53EC05
:10521000182B02F059F941EC1C0B51EC190B02F060
:1052200059F841EC180B5A489FED5BABA04222DCC9
:1052300053EC1C2B51EC1B0B02F0EEF9CDE90001F5
:105240009DED000B51EC180B53EC102B02F0C4FB3E
:1052500053EC182B02F038F953EC1A2B02F0BCFB7C
:1052600053EC1D2B02F08EFD53EC1E2B02F0B2FC12
:1052700041EC100B5FE08DED008B002000909DED68
:10528000000B51EC180B53EC102B02F01DF99DEDA7
:10529000000B41EC1E0B53EC102B51EC100B02F0E9
:1052A0009BFB53EC192B02F095FC53EC1E2B02F0E8
:1052B000B3F941EC190B53EC1C2B51EC1B0B02F016
:1052C000ABF941EC1B0B53EC1A2B51EC190B02F010
:1052D00083FB53EC1D2B02F07DFC41EC190B53ECCE
:1052E0001A2B51EC180B02F077FB53EC1B2B02F03E
:1052F00073FB53EC192B02F045FD9DED000B41ECC7
:10530000180B53EC1A2B51EC100B02F065FB9FEDC0
:10531000249B53EC192B02F05DFC41EC100B51EC7B
:10532000180B53EC102B02F02DFD53EC192B02F04F
:1053300051FC41EC100B002D3FF7C5AE51EC100BAA
:1053400002F084F841EC100BBDE600000000000004
:105350000000F03F00000000075C143326A6913CDB
:10536000182D4454FB21F93F0000F07F0000E03F7E
:10537000000000000000F03F202F00002E2F000052
:10538000000000000000E03F722E0000802E0000B0
:105390003333EF3F00000000000000000000004039
:1053A000182D4454FB21E93F70B59B482DED020BAD
:1053B0002DED068B079D25F00044A04218DC974890
:1053C000844202DC0AD1069840B19DED060BBDEC8B
:1053D000068B02B0BDE8704000F0D6BE002DCCBFF9
:1053E0009FED8F0B9FED900BBDEC068B02B070BD57
:1053F0008F48A04215DD8F48A042D8BF4FF0FF3440
:1054000058DD9DED060B51EC100BFFF703FE042851
:1054100008BF00F0DDFE9DED060BBDEC068B02B073
:1054200070BD9DED060B51EC100B00F008FFCDE9AF
:10543000060181489FED828BA0423CDD8248A0425C
:105440001FDD00249FED82AB9DED060B53EC1A2B64
:1054500051EC100B02F038F89DED060B41EC190BE6
:1054600053EC1A2B51EC100B02F0B6FA53EC182B3C
:1054700002F088FC53EC192B02F0CEF8CDE90601BE
:1054800049E09DED060B012453EC182B51EC100B59
:1054900002F01AF89DED060B41EC190B53EC182B9A
:1054A00051EC100B02F06EFC53EC192B02F0B4F827
:1054B000CDE906012FE06848A0421FDD02249FEDE0
:1054C000689B9DED060B53EC192B51EC100B02F071
:1054D00083FA53EC182B01F0F7FF9DED060B41EC1E
:1054E000180B53EC192B51EC100B02F04BFC53EC46
:1054F000182B02F091F8CDE906010CE09DED060BAA
:10550000032453EC102B9FED580B51EC100B02F0C1
:1055100083F8CDE906019DED060B53EC102B51EC01
:10552000100B02F059FA41EC180B53EC182B02F057
:1055300053FA41EC190B4E480621B0EE490AF0EE41
:10554000690A784400F00CFD53EC182B51EC100B59
:1055500002F042FA41EC180B4648B0EE490AF0EE70
:10556000690A0521784400F0FBFC53EC192B51EC3F
:10557000100B02F031FA41EC100B51EC180B53EC0C
:10558000102B002C0EDA01F09FFF9DED061B53EC53
:10559000112B02F021FA9DED061B53EC112B02F0AA
:1055A00019FB35E001F090FF9DED061B53EC112B2C
:1055B00002F012FA41EC100B2F48784400EBC400C3
:1055C00090ED001B51EC100B53EC112B02F0DAFBA9
:1055D0009DED061B53EC112B02F0D4FB41EC100B9C
:1055E0002648784400EBC40090ED001B51EC100BF2
:1055F00053EC112B02F0EEFA41EC100B002DA2BF80
:10560000BDEC068B02B070BD51EC100B01F01EFF1B
:1056100041EC100B01E70000000010440000F07F97
:10562000182D4454FB21F93F182D4454FB21F9BF98
:105630000000DC3F0000203E0000F33F00000000BF
:10564000000000000000F03F0000E63F0000000006
:105650000000000000000040008003400000000047
:10566000000000000000F83F000000000000F0BF54
:10567000C22B0000782B0000022B0000BA2A000089
:1056800070B56B4E2DED040B2DED028B82B0DDF865
:105690001CC0DDE905235C422CF000411C4341EABB
:1056A000D474049D22F00040B44205D86C422C43CF
:1056B00040EAD474B4420BD99DED061B9DED040B5A
:1056C00002B0BDEC028B04B0BDE8704000F066BDD6
:1056D000ACF14054A4F17F641C430BD0022404EAD3
:1056E000AC7444EAD27405439FED538B9FED542B69
:1056F00007D015E09DED040B51EC100B00F07BFD85
:1057000042E0002C11BF012C9DED040B02B0BDEC5A
:10571000028B04BF04B070BD022C38D0032C3BD0E8
:105720000B439FED491B9FED4A0B0AD0B14218D1A4
:10573000B04209D121F0804120F0804007910590CE
:105740000FE0002A15DA10E0434B7B44002C08BF21
:1057500093ED000B0DD0012C10D0022C17D0032C90
:105760001AD0B0421DD1002A03DAB0EE410AF0EEA1
:10577000610A02B0BDEC028B04B070BD93ED000B6A
:1057800051EC100B01F062FE41EC100BF1E7B0EEB2
:10579000480AF0EE680AECE7B0EE420AF0EE620A60
:1057A000E7E7401A00153C28C8BF8DED000B19DC57
:1057B000BCF1000FBEBF10F13C0F9FED290B8DED2A
:1057C000000B0FDB9DED060B53EC102B9DED040B36
:1057D00051EC100B01F020FF00F031FD00F00BFD4B
:1057E000CDE90001002C08BF9DED000BC1D0012CBC
:1057F00010D0022C9FED1C0B53EC102B9DED000BD9
:1058000051EC100B0DD002F0BDFA53EC182B02F046
:10581000B9FAB9E7019880F0004001909DED000BC6
:10582000A7E702F0AFFA53EC182B02F0D3F9ABE77D
:105830000000F07F00000000182D4454FB210940B7
:10584000182D4454FB2109C0182D4454FB21F9BFE5
:10585000182D4454FB21F93F1A2A000000000000D3
:105860000000000000000000075C143326A6A13CE5
:1058700010B52F499FED2C1B2DED020B84B0059820
:1058800020F000408842D8BF9DED040B2DDD294952
:10589000884209D1049840B94FF00100FAF735FD6C
:1058A00000F086FC06B010BD05DB9DED040B00F09A
:1058B0006BFC06B010BD68469DED040B00F07CF853
:1058C00010F0030004BF9DED021B9DED000B0CD0FA
:1058D00001280ED09DED021B9DED000B022817D074
:1058E000012000F0B9FB06B010BD00F081FA06B04F
:1058F00010BD9DED021B9DED000B012000F0ACFBE7
:1059000051EC100B01F0A2FD06B041EC100B10BDE4
:1059100000F06EFA51EC100B01F098FD06B041EC6E
:10592000100B10BD0000000000000000000000008F
:10593000FB21E93F0000F07F00B52DED048BB0EEB8
:10594000409AF0EE609A83B051EC190B02F04EF9D8
:1059500041EC180B18EE100A18EE901A8DED008B22
:10596000002818BF0120084320F00040C0F17F60EC
:1059700000F1E040C00F14D019EE101A19EE900A91
:105980008DED009B002918BF0121084320F0004045
:10599000C0F17F6000F1E040C00F04BF0120FAF7C2
:1059A000B4FCB0EE480A03B0F0EE680ABDEC048B1C
:1059B00000BD0000000000002DE9F14F04462DED70
:1059C000020B2DED088B8AB09FEDE70B80ED020BEB
:1059D000139EE74826F0004585420ADC9DED120B38
:1059E000002084ED000B0AB0BDEC088B03B0BDE8CD
:1059F000F08FE0489FEDE0AB9FEDE1BBA84247DDB3
:105A0000E14F9FEDE39B9FEDE48B9DED120B53EC7B
:105A10001A2B51EC100B002E1CDD02F0B3F941ECF7
:105A2000100BBD4208D053EC1B2B51EC100B02F0B5
:105A3000A9F9C4E900010BE053EC192B51EC100B50
:105A400002F0A0F953EC182B02F09CF9C4E9000114
:105A50000120C8E701F038FD41EC100BBD4208D031
:105A600053EC1B2B51EC100B01F02EFDC4E900018F
:105A70000BE053EC192B51EC100B01F025FD53EC0E
:105A8000182B01F021FDC4E900014FF0FF30AAE717
:105A9000C348A84279DB9DED120B51EC100B00F0CE
:105AA000CEFB41EC180B9FEDC00B53EC102B01F01B
:105AB00093FF9FEDBF1B53EC112B01F005FD01F08F
:105AC00003FF074601F05DFF41EC190B53EC1A2B65
:105AD00001F082FF53EC182B02F07CF841EC180B1C
